:020000040000FA
:040000004EEF24F0AB
:10487A001200F00EC116CF0EC116000EC26EC05045
:10488A00C70B1809C06EC050F80B0509C06EC08E60
:10489A00120001EE00F0500EEE6AE806FDE100EEAD
:1048AA00B2F0280EEE6AE806FDE15F6A000EF86EC5
:1048BA000001CCEF29F001500302F3CF05F0F4CF49
:1048CA0006F001500402F350062602500302F35088
:1048DA00062605C001F006C002F01200026E025060
:1048EA00D8B47AEF24F07CEF24F080EF24F08A80A9
:1048FA008A9282EF24F08A928A82000E956E8A96B4
:10490A0001C08CFF8A8800D08A9800D08A908A9247
:10491A0012000150021003100410D8B497EF24F0CB
:10492A0099EF24F0A1EF24F0000E011A000E021AEA
:10493A00000E031A800E041A01C001F002C002F030
:10494A0003C003F004C004F0120001C005F002C065
:10495A0006F003C0F6FF04C0F7FF034A042A05C0A5
:10496A00D9FF06C0DAFF054A062A0800F5CFDFFF9D
:10497A00DF50D8A4C3EF24F0C5EF24F0AEEF24F043
:10498A0012009F0E0001A36F9CC0A4F0000EA86F36
:10499A00000EA76F000EAF6F000EAE6FA40E966FDB
:1049AA009DC097F09EC098F0A30E996F27EC25F052
:1049BA0000019C51A725D96EDA6ADF6A1200000E3F
:1049CA000E6E000E0D6EF3EF24F00CC001F0026AB9
:1049DA000BC003F09CEC27F00D4A0E2A0D50092457
:1049EA00D96E0E500A20DA6EDF500C6E0C50D8A425
:1049FA0001EF25F003EF25F0EAEF24F01200000E94
:104A0A002C1A000E2D1A000E2E1A800E2F1A28C0EC
:104A1A0001F029C002F02AC003F02BC004F02CC018
:104A2A0005F02DC006F02EC007F02FC008F03FECAD
:104A3A0032F001C028F002C029F003C02AF004C0F5
:104A4A002BF0120097C09AF098C09BF036EF25F031
:104A5A0096C08CF09A0E00018D6F99C08EF044ECCE
:104A6A002DF09AC0F6FF9BC0F7FF0800F550000929
:104A7A00D8A442EF25F044EF25F02DEF25F0000EE3
:104A8A000001976F000E966F1200036E0D0E0364FD
:104A9A0051EF25F053EF25F059EF25F0000E026E85
:104AAA00000E016E6DEF25F0000EC26E0344E8465B
:104ABA00FC0BC26EC280C282C2B266EF25F068EFFA
:104ACA0025F061EF25F0C290C3CF01F0C4CF02F008
:104ADA0012000F0EC16E000EC26E9282C150F00B10
:104AEA000C09C16E050EC26E000EC16EC280929094
:104AFA008980000E926E000E936E000E946E000E68
:104B0A00956E000E966E000E806E000E816E000E7F
:104B1A00826E000E836E000E846E120003C00AF0CD
:104B2A0004C00BF001C008F002C009F0ADEF25F097
:104B3A000AC0D9FF0BC0DAFFDF50076E0A4A0B2AF8
:104B4A0008C0D9FF09C0DAFF07C0DFFF084A092AEF
:104B5A000506D8A00606052806E10628D8A4B8EF57
:104B6A0025F0BAEF25F09DEF25F01200D8EF25F0D9
:104B7A000D50D8B4C3EF25F0C5EF25F0CFEF25F0DF
:104B8A000EC003F00C50D96EDA6ADF50D7EC2AF067
:104B9A00D7EF25F00EC003F00C50D96EDA6ADF5059
:104BAA0051EC2AF00C2A0C50D96EDA6ADF50D8A4DC
:104BBA00E1EF25F0E3EF25F0BDEF25F0120004BE8A
:104BCA00E9EF25F0EBEF25F0F5EF25F001C001F054
:104BDA0002C002F003C003F004C004F00EEF26F096
:104BEA0001C005F002C006F003C007F004C008F0D7
:104BFA00051E061E071E081E052A000E062207228B
:104C0A00082205C001F006C002F007C003F008C080
:104C1A0004F0120013BE16EF26F014EF26F01AEF76
:104C2A0026F0000E136E000E126E000E166E000EA7
:104C3A00156E2AEF26F0000E026E200E016E0FC0CE
:104C4A0003F09CEC27F0154A162A1250155C1650F0
:104C5A00800A146E1350800A1458D8A037EF26F031
:104C6A0039EF26F020EF26F010C009F011C00AF043
:104C7A000FC00BF0E4EC24F01200056E000E046E77
:104C8A00800E05604BEF26F04DEF26F075EF26F00B
:104C9A00070E036453EF26F055EF26F057EF26F080
:104CAA0075EF26F005C05FF003C0C5F03F0E05643E
:104CBA0061EF26F063EF26F067EF26F0400E055EFF
:104CCA00010E046E8A9405504009016E045073EC7B
:104CDA0024F00350B809016E045073EC24F08A845E
:104CEA001200036E000E056E8A94400E016E000ECD
:104CFA0073EC24F0400E016E010E73EC24F00550A3
:104D0A00B809016E000E73EC24F00550B809016E63
:104D1A00010E73EC24F08A84000E046E0350010D18
:104D2A00F3500008016E000E73EC24F00350010DDD
:104D3A00F3500008016E010E73EC24F0042A3F0EB2
:104D4A000464AAEF26F0ACEF26F093EF26F0052ACA
:104D5A00070E0564B3EF26F0B5EF26F079EF26F0DB
:104D6A001200000E046E000E036E000E066E000E98
:104D7A00076E8A94400E016E075073EC24F00650B9
:104D8A00B809016E075073EC24F08A84000E056E90
:104D9A002F0E0324F66E7B0E0420F76E0800F5CF63
:104DAA0001F0075073EC24F0034A042A052A3F0E47
:104DBA000564E2EF26F0E4EF26F0CDEF26F0072AAD
:104DCA00010E0764EBEF26F0EDEF26F0BEEF26F0BA
:104DDA00062A070E0664F4EF26F0F6EF26F0BCEF7B
:104DEA0026F08A908A921200066E000E836E8A9AC4
:104DFA00210EE82EFED700008A8A8A988A908A9223
:104E0A008A9400D0C00E016E000E73EC24F0C00E1E
:104E1A00016E010E73EC24F0400E016E000E73EC6D
:104E2A0024F0400E016E010E73EC24F0B80E016EF0
:104E3A00000E73EC24F0B80E016E010E73EC24F030
:104E4A000604D8A42BEF27F02DEF27F039EF27F02F
:104E5A003F0E016E000E73EC24F03F0E016E010E40
:104E6A0073EC24F043EF27F03E0E016E000E73EC54
:104E7A0024F03E0E016E010E73EC24F0000E76EC67
:104E8A0026F01200000E0114096E000E02140A6EBA
:104E9A00800E03140B6E7F0E04140C6E09500A1058
:104EAA000B100C10D8A45CEF27F05EEF27F066EF2A
:104EBA0027F0000E016E000E026E000E036E000E49
:104ECA00046E000E0514096E000E06140A6E800E9A
:104EDA0007140B6E7F0E08140C6E09500A100B1083
:104EEA000C10D8A47BEF27F07DEF27F085EF27F091
:104EFA00000E056E000E066E000E076E000E086E9E
:104F0A00055001180FE1065002180CE1075003186A
:104F1A0009E108500418D8B495EF27F097EF27F065
:104F2A009AEF27F0D8909BEF27F0D8801200035011
:104F3A00D8B4A2EF27F0A4EF27F0ACEF27F0035084
:104F4A00D8A4AAEF27F0ACEF27F0B1EF27F0015071
:104F5A003DEC24F0F0EF27F00350D96EDA6A0A0E1E
:104F6A00D926DE50DE10D8B4BDEF27F0BFEF27F008
:104F7A00D8EF27F00350D96EDA6A0A0ED926035001
:104F8A00E16EE26A030EE126DE50E65CE650800A34
:104F9A00086EDE50800A0858D8B0D6EF27F0D8EF4E
:104FAA0027F0F0EF27F00350D96EDA6A030ED926FC
:104FBA00DF50046E0350D96EDA6ADF500424D96ECA
:104FCA00DA6A01C0DFFF0350D96EDA6A030ED92606
:104FDA00DE2A000EDD221200000E0B6E000E0A6E93
:104FEA000750D96EDA6ADECFF6FFDDCFF7FF080089
:104FFA00F5502A0AD8A404EF28F006EF28F030EF7B
:10500A0028F00750D96EDA6ADE2A000EDD2208502F
:10501A00D96EDA6A020EDF26DF5CD96EDA6ADECF73
:10502A000AF0DECF0BF043EF28F00AC001F00BC004
:10503A0002F0000E046E0A0E036E60EC24F00950B2
:10504A0001240A6E000E02200B6E0750D96EDA6A2E
:10505A00DE2A000EDD220750D96EDA6ADECFF6FFAD
:10506A00DDCFF7FF0800F550D00F096E090E09646D
:10507A0041EF28F043EF28F01AEF28F00AC007F0B2
:10508A000BC008F01200B6C00BF0B7C00CF0B8C0E5
:10509A000DF0B9C00EF001C00BF002C00CF003C055
:1050AA000DF004C00EF00BC005F00CC006F00DC0E8
:1050BA0007F00EC008F0180E68EF28F0D8900832F2
:1050CA00073206320532E82E63EF28F00550096EE2
:1050DA000A6A09500A10D8A475EF28F077EF28F069
:1050EA0097EF28F0D8900B34056E0C34066E0D3409
:1050FA00076E0E34086E0550061007100810D8A463
:10510A0089EF28F08BEF28F091EF28F0000E026E5D
:10511A00020E016EC6EF28F0000E026E030E016E3B
:10512A00C6EF28F009280A10D8A49EEF28F0A0EFAD
:10513A0028F0C2EF28F00BC005F00CC006F00DC035
:10514A0007F00EC008F0090ED89005360636073665
:10515A000836E82EA9EF28F00550061007100810A7
:10516A00D8B4BAEF28F0BDEF28F0010EBEEF28F050
:10517A00000E016E026AC6EF28F0000E026E040EDF
:10518A00016E1200000E2814306E000E2914316EC2
:10519A00800E2A14326E7F0E2B14336E305031106B
:1051AA0032103310D8A4DCEF28F0DEEF28F0E6EF57
:1051BA0028F0000E286E000E296E000E2A6E000ED0
:1051CA002B6E000E2C14306E000E2D14316E800ED4
:1051DA002E14326E7F0E2F14336E3050311032106F
:1051EA003310D8A4FBEF28F0FDEF28F005EF29F0E3
:1051FA00000E2C6E000E2D6E000E2E6E000E2F6EFF
:10520A002BAE0AEF29F00CEF29F015EF29F0286CE4
:10521A00291ED8B0292A2A1ED8B02A2A800E2B562F
:10522A002FAE1AEF29F01CEF29F025EF29F02C6C8C
:10523A002D1ED8B02D2A2E1ED8B02E2A800E2F56FB
:10524A00000E281A000E291A000E2A1A800E2B1A8E
:10525A00000E2C1A000E2D1A000E2E1A800E2F1A6E
:10526A002C50285C2D5029582E502A582F502B5834
:10527A00D8B042EF29F044EF29F047EF29F0D8904F
:10528A0048EF29F0D8801200033404340A6E0A5019
:10529A00D8A452EF29F054EF29F05EEF29F0000E5E
:1052AA00016E000E026E000E036E000E046ECBEF4E
:1052BA0029F001C005F002C006F003C007F004C0DF
:1052CA0008F0200E6EEF29F0D89008320732063225
:1052DA000532E82E69EF29F00550096E038EFF0E9C
:1052EA000116FF0E0216FF0E0316000E0416960E86
:1052FA000A5E0ABE85EF29F083EF29F09BEF29F0B9
:10530A000A50800A970FD8B08DEF29F08FEF29F055
:10531A0091EF29F054EF29F0D89004320332023287
:10532A0001320A3E91EF29F0B3EF29F01F0E0A6409
:10533A00A1EF29F0A3EF29F0ABEF29F054EF29F000
:10534A00D89001360236033604360A060A50D8A423
:10535A00B1EF29F0B3EF29F0A5EF29F00950D8B43D
:10536A00B9EF29F0BBEF29F0C3EF29F0041E031EA1
:10537A00021E016C000E02220322042201C001F067
:10538A0002C002F003C003F004C004F012006EEC85
:10539A0025F03EEC24F0000E76EC26F0010EF9EC36
:1053AA0026F0B6EC26F0150E0001B16F4B0EB06F69
:1053BA00BE0EE82EFED7B02FFCD7B12FFAD70000C9
:1053CA00000E76EC26F0010E926E000E4AEC25F0E5
:1053DA0001C0C2F002C0C3F0000E136E000E146EBC
:1053EA00A00E156E400E166EC2C001F0C3C002F0C8
:1053FA00036A046A000E61EC2BF001C00FF002C0D0
:10540A0010F003C011F004C012F02AEC30F00FC003
:10541A0028F010C029F011C02AF012C02BF0000E9B
:10542A002C6EC00E2D6E7F0E2E6E440E2F6E5DEC0E
:10543A002EF028C0BAF029C0BBF02AC0BCF02BC09D
:10544A00BDF0C60E00019C6FF20E9D6F7F0E9E6F1F
:10545A00BAC09FF0BBC0A0F0BCC0A1F0BDC0A2F012
:10546A00C6EC24F0010E036E600E42EC26F0C60E66
:10547A000C6E010E0D6E010E0E6EBBEC25F00D0EBC
:10548A000001B06FFB0EE82EFED7B02FFCD700D07C
:10549A00EAEF29F000EF00F0076E000E096E0A0E1F
:1054AA000718D8A45BEF2AF05DEF2AF063EF2AF021
:1054BA00000E5F6E0001C52BD6EF2AF03F0E5F6427
:1054CA0069EF2AF06BEF2AF072EF2AF0010E096EEB
:1054DA005F50C00F066E74EF2AF05FC006F0200E10
:1054EA00075E000E086E3F0E06647EEF2AF080EF1C
:1054FA002AF093EF2AF0400E065E010E096E8A9496
:10550A0006504009016E010E73EC24F00001C551EA
:10551A00B809016E010E73EC24F08A840350D8B4E2
:10552A0099EF2AF09BEF2AF0B3EF2AF00750030D08
:10553A002F0EF324046E7F0EF420056E0850042605
:10554A00000E052204C0F6FF05C0F7FF0800F5CFDC
:10555A0001F0095073EC24F0CAEF2AF00750030D4A
:10556A002F0EF324046E7F0EF420056E08500426D5
:10557A00000E052204C0F6FF05C0F7FF0800F5502B
:10558A00FF0A016E095073EC24F0062A082A020E5B
:10559A000864D2EF2AF0D4EF2AF078EF2AF0050E49
:1055AA005F261200086E000E0B6E0A0E0818D8A4A9
:1055BA00E1EF2AF0E3EF2AF0E9EF2AF0000E5F6E3E
:1055CA000001C52B60EF2BF03F0E5F64EFEF2AF06E
:1055DA00F1EF2AF0F8EF2AF0010E0B6E5F50C00FC0
:1055EA00096EFAEF2AF05FC009F00850080DF3CFF0
:1055FA0006F0F4CF07F0000E0A6E3F0E096408EFBA
:10560A002BF00AEF2BF01DEF2BF0400E095E010E76
:10561A000B6E8A9409504009016E010E73EC24F056
:10562A000001C551B809016E010E73EC24F08A8499
:10563A000350D8B423EF2BF025EF2BF03DEF2BF0DE
:10564A002F0E046E730E056E0A500426000E0522F4
:10565A00065004260750052204C0F6FF05C0F7FFCE
:10566A000800F5CF01F00B5073EC24F054EF2BF047
:10567A002F0E046E730E056E0A500426000E0522C4
:10568A00065004260750052204C0F6FF05C0F7FF9E
:10569A000800F550FF0A016E0B5073EC24F0092A3A
:1056AA000A2A070E0A645CEF2BF05EEF2BF002EF7A
:1056BA002BF0080E5F261200096E0950D8B468EF65
:1056CA002BF06AEF2BF08CEF2BF004BE71EF2BF06E
:1056DA006FEF2BF08CEF2BF001C005F002C006F043
:1056EA0003C007F004C008F0051E061E071E081EA8
:1056FA00052A000E06220722082205C00BF006C062
:10570A000CF007C00DF008C00EF094EF2BF001C0AA
:10571A000BF002C00CF003C00DF004C00EF00150F3
:10572A00021003100410D8A49DEF2BF09FEF2BF06A
:10573A00A9EF2BF0000E016E000E026E000E036E32
:10574A00000E046E3AEF2CF0960E0A6EB3EF2BF0B1
:10575A000A2AD8900E320D320C320B32000E0B147C
:10576A00056E000E0C14066E000E0D14076EFE0E6A
:10577A000E14086E0550061007100810D8A4C8EFBA
:10578A002BF0CAEF2BF0ADEF2BF0D8EF2BF00A2A53
:10579A00010E0B26000E0C220D220E22D8900E327C
:1057AA000D320C320B32000E0B14056E000E0C1467
:1057BA00066E000E0D14076EFF0E0E14086E0550CD
:1057CA00061007100810D8A4EDEF2BF0EFEF2BF01E
:1057DA00CCEF2BF0F7EF2BF00A06D8900B360C36ED
:1057EA000D360E360DBEFCEF2BF0FEEF2BF006EF5A
:1057FA002CF0020E0A6004EF2CF006EF2CF0F1EF09
:10580A002BF00AB00BEF2CF00DEF2CF00EEF2CF072
:10581A000D9ED8900A320AC005F0066A076A086A1D
:10582A0005C008F0076A066A056A05500B12065099
:10583A000C1207500D1208500E120950D8B428EF56
:10584A002CF02AEF2CF032EF2CF004BE31EF2CF0C2
:10585A002FEF2CF032EF2CF00E8E0BC001F00CC0A3
:10586A0002F00DC003F00EC004F01200B2C051F0F5
:10587A00B3C052F0B4C053F0B5C054F041C051F0B7
:10588A0042C052F043C053F044C054F0810E456EFA
:10589A00FF0E466E51C047F052C048F053C049F05F
:1058AA0054C04AF0180E5FEF2CF0D8904A324932B1
:1058BA0048324732E82E5AEF2CF0475045244F6EB3
:1058CA00000E4620506E50BE74EF2CF0505009E185
:1058DA00170E4F5CD8A074EF2CF076EF2CF080EF07
:1058EA002CF041C041F042C042F043C043F044C0F2
:1058FA0044F043EF2DF050BE85EF2CF087EF2CF0EB
:10590A00F7EF2CF04FC045F0FF0E466EFF0E476EC4
:10591A007F0E486E000E496E456696EF2CF09EEF9C
:10592A002CF049344932483247324632452E91EFFB
:10593A002CF046C04BF047C04CF048C04DF049C06F
:10594A004EF04B505114456E4C505214466E4D5009
:10595A005314476E4E505414486E45504610471023
:10596A004810D8A4BBEF2CF0BDEF2CF0BFEF2CF001
:10597A0076EF2CF051C045F052C046F053C047F0C4
:10598A0054C048F0200ECFEF2CF0D890483247325E
:10599A0046324532E82ECAEF2CF0455046104710E1
:1059AA004810D8B4DBEF2CF0DDEF2CF0E5EF2CF04B
:1059BA004B5051264C5052224D5053224E50542295
:1059CA004B1C456E4C1C466E4D1C476E4E1C486E59
:1059DA0045505116465052164750531648505416C1
:1059EA003BEF2DF051C045F052C046F053C047F08E
:1059FA0054C048F0200E07EF2DF0D89048324732B5
:105A0A0046324532E82E02EF2DF045504610471037
:105A1A004810D8A413EF2DF015EF2DF01FEF2DF03D
:105A2A00000E516E000E526E000E536E000E546E32
:105A3A003BEF2DF0D8905134456E5234466E5334B4
:105A4A00476E5434486E4550461047104810D8B433
:105A5A0031EF2DF033EF2DF03BEF2DF0000E516EAC
:105A6A00000E526E800E536EBF0E546E51C041F03E
:105A7A0052C042F053C043F054C044F01200000137
:105A8A008D51D96EDA6ADECFF6FFDDCFF7FF080057
:105A9A00F550250AD8A454EF2DF056EF2DF04BEF10
:105AAA002EF08D51D96EDA6ADE2A000EDD22000E42
:105ABA00BF6F000EBE6FBEC0C4F0C069C1698D5110
:105ACA00D96EDA6ADECFF6FFDDCFF7FF0800F550B0
:105ADA002E0AD8A473EF2DF075EF2DF085EF2DF077
:105AEA008D51D96EDA6ADE2A000EDD228DC007F0EA
:105AFA008EC008F0F1EC27F007C0C0F008C0C1F072
:105B0A0000018D51D96EDA6ADECF94F0DDCF95F0BF
:105B1A0094C0F6FF95C0F7FF0800F5CF93F0A2EF07
:105B2A002DF0944B952BBBEF2DF06C0E936FBBEFC2
:105B3A002DF0000E936FBBEF2DF093515D6E5E6AF0
:105B4A005E50000AD8B4ACEF2DF09EEF2DF05D50F8
:105B5A004C0AD8B496EF2DF02A0AD8B49AEF2DF051
:105B6A000A0AD8B496EF2DF09EEF2DF094C0F6FFF6
:105B7A0095C0F7FF0800F550660AD8A4C7EF2DF0C4
:105B8A00C9EF2DF042EF2EF0F3EF2DF08E51D96EC2
:105B9A00DA6ADFCF5DF0040EDF265D50D96EDA6A6D
:105BAA00DECF8FF0DECF90F0DECF91F0DECF92F035
:105BBA0008EF2EF08E51D96EDA6ADFCF5DF0040E4F
:105BCA00DF265D50D96EDA6ADECF8FF0DECF90F035
:105BDA00DECF91F0DECF92F008EF2EF093515D6E9A
:105BEA005E6A5E50000AD8B4FDEF2DF008EF2EF081
:105BFA005D504C0AD8B4DFEF2DF0200AD8B4CBEFB1
:105C0A002DF008EF2EF0010E94255D6E000E952101
:105C1A005E6E8D51D96EDA6A5DC0DEFF5EC0DDFF51
:105C2A002CEF2EF08CC055F08FC056F090C057F074
:105C3A0091C058F092C059F094C0F6FF95C0F7FF92
:105C4A000800F5CF5AF09FEC34F05CEF2EF094C0C8
:105C5A00F6FF95C0F7FF0800F5505D6E5E6A5E506C
:105C6A00000AD8B43BEF2EF042EF2EF05D50660AE0
:105C7A00D8B417EF2EF042EF2EF000018D51D96EF5
:105C8A00DA6ADE2A000EDD225CEF2EF08D51D96E23
:105C9A00DA6ADECFF6FFDDCFF7FF0800F550016EB6
:105CAA00026A8CC003F09CEC27F042EF2EF012003F
:105CBA002B50800B386E2B502B243F6E2AAE68EF88
:105CCA002EF06AEF2EF06BEF2EF03F803F50D8B4E3
:105CDA0071EF2EF073EF2EF088EF2EF03F28D8A444
:105CEA0079EF2EF07BEF2EF083EF2EF0000E286E68
:105CFA00000E296E000E2A6E000E2B6E2A8E000EE2
:105D0A002B6E90EF2EF0000E286E000E296E000EFC
:105D1A002A6E000E2B6E2F50800B381A2F502F240C
:105D2A00406E2EAE9BEF2EF09DEF2EF09EEF2EF0E2
:105D3A0040804050D8B4A4EF2EF0A6EF2EF0BBEF6F
:105D4A002EF04028D8A4ACEF2EF0AEEF2EF0B6EF2E
:105D5A002EF0000E2C6E000E2D6E000E2E6E000E12
:105D6A002F6E2E8E000E2F6EC3EF2EF0000E2C6EAD
:105D7A00000E2D6E000E2E6E000E2F6E2C502D1062
:105D8A002E102F10D8A4CCEF2EF0CEEF2EF0E6EF87
:105D9A002EF0000E286E000E296E000E2A6E000EDE
:105DAA002B6E800E2A127F0E2B1238502B1228C00F
:105DBA0028F029C029F02AC02AF02BC02BF029EF9D
:105DCA0030F03F50D8A4ECEF2EF0EEEF2EF0F8EFC3
:105DDA002EF0000E286E000E296E000E2A6E000E9E
:105DEA002B6E29EF30F040503FC030F0316A305E00
:105DFA00000E315A7F0E3024396E000E31203A6E71
:105E0A0028C034F029C035F02AC036F02BC037F04C
:105E1A00000E286E000E296E000E2A6E000E2B6EE2
:105E2A00000E3B6E000E3C6E000E3D6E000E3E6E86
:105E3A00000E406E59EF2FF04050D8B427EF2FF0E4
:105E4A0029EF2FF040EF2FF0D8903436353636361A
:105E5A003736D890283629362A362B363EAE38EFD2
:105E6A002FF03AEF2FF03BEF2FF02880D8903B36F7
:105E7A003C363D363E362C50345C2D5035582E502B
:105E8A0036582F503758D8A04DEF2FF04FEF2FF03C
:105E9A0058EF2FF03E8C2C50345E2D50355A2E5030
:105EAA00365A2F50375A402A190E40645FEF2FF0A6
:105EBA0061EF2FF021EF2FF03450351036103710E4
:105ECA00D8B46AEF2FF06CEF2FF084EF2FF03B80FD
:105EDA0084EF2FF0D890283629362A362B363EAE54
:105EEA0079EF2FF07BEF2FF07CEF2FF02880D890FE
:105EFA003B363C363D363E363906D8A03A062AAEFF
:105F0A0089EF2FF08BEF2FF06FEF2FF0000E406E1E
:105F1A003EAE92EF2FF094EF2FF0B8EF2FF0FF0E76
:105F2A003B14306EFF0E3C14316EFF0E3D14326E80
:105F3A007F0E3E14336E3050311032103310D8B405
:105F4A00A9EF2FF0ABEF2FF0AFEF2FF0010E406E5D
:105F5A00B8EF2FF028A0B4EF2FF0B6EF2FF0B8EF7C
:105F6A002FF0ABEF2FF04050D8B4BEEF2FF0C0EFB8
:105F7A002FF0E4EF2FF0010E2826000E29222A2204
:105F8A002B222BA0CBEF2FF0CDEF2FF0E4EF2FF049
:105F9A0028C030F029C031F02AC032F02BC033F0CB
:105FAA003334333232323132303230C028F031C0F9
:105FBA0029F032C02AF033C02BF0394A3A2A3ABEC5
:105FCA00EFEF2FF03A5008E13928D8A0EFEF2FF081
:105FDA00F1EF2FF0FCEF2FF0000E3A6E3968000E49
:105FEA00286E000E296E000E2A6E000E2B6E3ABE27
:105FFA0009EF30F03A5006E13904D8B007EF30F033
:10600A0009EF30F017EF30F0000E3A6E000E396EDD
:10601A00000E286E000E296E000E2A6E000E2B6EE0
:10602A00000E386E39C03FF03FA01EEF30F020EF6F
:10603A0030F023EF30F02A8E24EF30F02A9ED890E9
:10604A003F302B6EDAEF2EF012001250800B1B6ECF
:10605A0012501224216E11AE35EF30F037EF30F0C6
:10606A0038EF30F021802150D8B43EEF30F040EFC5
:10607A0030F053EF30F02128D8A446EF30F048EF43
:10608A0030F050EF30F0000E0F6E000E106E000E62
:10609A00116E000E126E118E5BEF30F0000E0F6E55
:1060AA00000E106E000E116E000E126E1650800B4E
:1060BA001B1A16501624206E15AE66EF30F068EFE4
:1060CA0030F069EF30F020802050D8B46FEF30F014
:1060DA0071EF30F084EF30F02028D8A477EF30F059
:1060EA0079EF30F081EF30F0000E136E000E146E6F
:1060FA00000E156E000E166E158E8CEF30F0000E27
:10610A00136E000E146E000E156E000E166E2050E1
:10611A00D8B492EF30F094EF30F09CEF30F0215089
:10612A00D8A49AEF30F09CEF30F0A6EF30F0000ED2
:10613A000F6E000E106E000E116E000E126E3EEF04
:10614A0032F015500F02F3CF26F0F4CF27F0265085
:10615A001C6E1D6A1E6A1F6A2750226E236A246AF1
:10616A00256A14501002F3CF26F0F4CF27F02650F8
:10617A001C26000E1D221E221F2227502226000E38
:10618A0023222422252213501102F3CF26F0F4CF22
:10619A0027F026501C26000E1D221E221F222750E1
:1061AA002226000E2322242225221EC01FF01DC0F3
:1061BA001EF01CC01DF01C6A13501002F3CF26F00B
:1061CA00F4CF27F026501C2627501D22000E1E222F
:1061DA00000E1F2214500F02F3CF26F0F4CF27F03F
:1061EA0026501C2627501D22000E1E22000E1F229A
:1061FA001EC01FF01DC01EF01CC01DF01C6A1350EB
:10620A000F02F3CF26F0F4CF27F026501C26275092
:10621A001D22000E1E22000E1F2215501002F3CF5F
:10622A0026F0F4CF27F02650222627502322000EEC
:10623A002422000E252214501102F3CF26F0F4CFA7
:10624A0027F02650222627502322000E2422000E51
:10625A00252215501102F3CF26F0F4CF27F026504D
:10626A00176E2750186E196A1A6A19C01AF018C0E0
:10627A0019F017C018F0176A17502226185023224F
:10628A00195024221A5025221CC017F01DC018F0DC
:10629A001EC019F01FC01AF0190E59EF31F0D8902C
:1062AA001A32193218321732E82E54EF31F01750D9
:1062BA00222618502322195024221A5025221EC0A1
:1062CA001FF01DC01EF01CC01DF01C6A205021C00A
:1062DA0017F0186A1726000E1822820E1724266E47
:1062EA00FF0E1820276E8FEF31F0D8902236233612
:1062FA00243625361FAE84EF31F086EF31F087EF72
:10630A0031F02280D8901C361D361E361F362606DE
:10631A00D8A0270624AE94EF31F096EF31F07AEF49
:10632A0031F0000E206E1FAE9DEF31F09FEF31F07D
:10633A00C3EF31F0FF0E1C14176EFF0E1D14186EFA
:10634A00FF0E1E14196E7F0E1F141A6E17501810A6
:10635A0019101A10D8B4B4EF31F0B6EF31F0BAEF21
:10636A0031F0010E206EC3EF31F022A0BFEF31F001
:10637A00C1EF31F0C3EF31F0B6EF31F02050D8B4AD
:10638A00C9EF31F0CBEF31F0EFEF31F0010E2226F9
:10639A00000E23222422252225A0D6EF31F0D8EFA1
:1063AA0031F0EFEF31F022C017F023C018F024C00B
:1063BA0019F025C01AF01A341A3219321832173263
:1063CA0017C022F018C023F019C024F01AC025F013
:1063DA00264A272A27BEFAEF31F0275008E1262855
:1063EA00D8A0FAEF31F0FCEF31F006EF32F0000EF0
:1063FA00226E000E236E800E246E7F0E256E34EF01
:10640A0032F027BE13EF32F0275006E12604D8B047
:10641A0011EF32F013EF32F01FEF32F0000E226E5E
:10642A00000E236E000E246E000E256E000E1B6EEB
:10643A0034EF32F026C021F0FF0E2216FF0E23168B
:10644A007F0E2416000E251621A02EEF32F030EF13
:10645A0032F031EF32F0248ED8902130256E1B5065
:10646A00251222C00FF023C010F024C011F025C05D
:10647A0012F012000450800B0D6E045004240F6EAB
:10648A0003AE4AEF32F04CEF32F04DEF32F00F80AC
:10649A000F50D8B453EF32F055EF32F06AEF32F0C2
:1064AA000F28D8A45BEF32F05DEF32F065EF32F0DF
:1064BA00000E016E000E026E000E036E000E046ED8
:1064CA00038E000E046E72EF32F0000E016E000EA3
:1064DA00026E000E036E000E046E0850800B0E6EE4
:1064EA000D500E18D8B47CEF32F07EEF32F07FEF09
:1064FA0032F00D8C085008240E6E07AE87EF32F08A
:10650A0089EF32F08AEF32F00E800E50D8B490EF55
:10651A0032F092EF32F0A7EF32F00E28D8A498EFBB
:10652A0032F09AEF32F0A2EF32F0000E056E000E52
:10653A00066E000E076E000E086E078E000E086EBD
:10654A00AFEF32F0000E056E000E066E000E076EFB
:10655A00000E086E0F500E5CD8B0B6EF32F0B8EFEE
:10656A0032F0DFEF32F00DACBDEF32F0BFEF32F0B8
:10657A00C1EF32F0800E0D1A0FC010F00EC00FF0EE
:10658A0010C00EF001C010F005C001F010C005F0F7
:10659A0002C010F006C002F010C006F003C010F0EE
:1065AA0007C003F010C007F004C010F008C004F0E0
:1065BA0010C008F0000E106E0F500EC009F00A6AE3
:1065CA00095E000E0A5A0ABEF4EF32F00A5009E1D7
:1065DA001A0E095CD8A0F4EF32F0F6EF32F02DEF84
:1065EA0033F00150021003100410D8A4FFEF32F068
:1065FA0002EF33F0010E03EF33F0000E106E000EBF
:10660A00016E000E026E000E036E000E046E0EC0C6
:10661A000FF036EF33F010A015EF33F017EF33F029
:10662A001DEF33F0D89010300109106E1FEF33F0D0
:10663A00D890103201A024EF33F026EF33F027EF81
:10664A0033F0108E043404320332023201320F2A3C
:10665A000E500F5CD8A034EF33F036EF33F010EF62
:10666A0033F00DBC3BEF33F03DEF33F07DEF33F009
:10667A000F50D8A443EF33F045EF33F04FEF33F028
:10668A00000E016E000E026E000E036E000E046E06
:10669A009EEF34F0055001260650022207500322CD
:1066AA000850042204A05CEF33F05EEF33F00AEFE7
:1066BA0034F010A063EF33F065EF33F06BEF33F093
:1066CA00D89010300109106E6DEF33F0D890103267
:1066DA0001A072EF33F074EF33F075EF33F0108EE0
:1066EA00043404320332023201320F2A0AEF34F040
:1066FA000550015C06500258075003580450800A9E
:10670A00096E0850800A0958D8B08EEF33F090EF1E
:10671A0033F0BBEF33F00150055C096E02500658A6
:10672A000A6E035007580B6E045008580C6EFF0E81
:10673A000924016EFF0E0A20026EFF0E0B20036E63
:10674A00FF0E0C20046E800E0D1A106C1050D8A487
:10675A00B1EF33F0B3EF33F0C3EF33F0010E01269C
:10676A00000E022203220422C3EF33F00550015E19
:10677A000650025A0750035A0850045A0150021090
:10678A0003100410D8A4CCEF33F0CEEF33F003EFAC
:10679A0034F01050D8A4D4EF33F0D6EF33F003EF2F
:1067AA0034F0000E016E000E026E000E036E000E33
:1067BA00046E9EEF34F0D890013602360336043662
:1067CA0010AEEAEF33F0ECEF33F0EDEF33F0018087
:1067DA0010A0F2EF33F0F4EF33F0F8EF33F0D88093
:1067EA001036FAEF33F0D89010360F50D8B400EFC5
:1067FA0034F002EF34F003EF34F00F0603AE08EF83
:10680A0034F00AEF34F0E0EF33F0000E0E6E10AE03
:10681A0011EF34F013EF34F02BEF34F010C009F01D
:10682A007F0E0916D8B41CEF34F01EEF34F022EFB5
:10683A0034F0010E0E6E2BEF34F001A027EF34F086
:10684A0029EF34F02BEF34F01EEF34F00E50D8B4A9
:10685A0031EF34F033EF34F05EEF34F0010E0126FD
:10686A00000E02220322042204A03EEF34F040EF7D
:10687A0034F05EEF34F001C009F002C00AF003C040
:10688A000BF004C00CF00C340C320B320A32093211
:10689A0009C001F00AC002F00BC003F00CC004F0FA
:1068AA000F28D8B45BEF34F05DEF34F05EEF34F0CC
:1068BA000F2A0F28D8B464EF34F066EF34F06EEF85
:1068CA0034F00F50D8A46CEF34F06EEF34F080EF50
:1068DA0034F0000E016E000E026E000E036E000E02
:1068EA00046E0F50D8A47CEF34F07EEF34F080EFC2
:1068FA0034F0000E0D6E0FA085EF34F087EF34F000
:10690A008AEF34F0038E8BEF34F0039ED8900F3069
:10691A00046E0DAE93EF34F095EF34F096EF34F049
:10692A00048E01C001F002C002F003C003F004C0EB
:10693A0004F01200000E0001816F56C082F057C0A9
:10694A0083F058C084F059C085F085BFB1EF34F0A8
:10695A00AFEF34F0C5EF34F0010E816F82C001F061
:10696A0083C002F084C003F085C004F08EEC24F0EA
:10697A0001C082F002C083F003C084F004C085F035
:10698A00000E0001876F000E866FBEC071F0BFC097
:10699A0072F08151D8B4D4EF34F0D6EF34F0EAEF84
:1069AA0034F08151D8A4DCEF34F0DEEF34F0E4EFB8
:1069BA0034F0000E676F2B0E666FE8EF34F0000EAE
:1069CA00676F2D0E666F66C081F082C001F083C0CA
:1069DA0002F084C003F085C004F048EC28F00104FA
:1069EA000210D8A4FBEF34F0FDEF34F02EEF35F0AF
:1069FA0000018151D8B404EF35F006EF35F00FEFFE
:106A0A0035F081C000F17107D8A07207000E876FB8
:106A1A00010E866F000E8625016E010E8721026E19
:106A2A00F70E036E7F0E046EAAEC24F00001FD0E31
:106A3A007127FF0E722355C00FF0000E106E010E63
:106A4A00116E71C012F072C013F00FEC26F096EFBF
:106A5A0039F082C001F083C002F084C003F085C01F
:106A6A0004F048EC28F001500210D8A43FEF35F0AA
:106A7A0041EF35F061EF35F000018151D8B448EFAC
:106A8A0035F04AEF35F053EF35F081C000F1710768
:106A9A00D8A07207000E876F010E866F000E86253A
:106AAA00016E010E8721026EFB0E036E7F0E046ECD
:106ABA00AAEC24F01BEF35F0000E0001886F000EDF
:106ACA00896F800E8A6F3F0E8B6F000E706F000EFB
:106ADA006F6F82C001F083C002F084C003F085C0EA
:106AEA0004F0000E056E000E066E000E076E000E14
:106AFA00086E47EC27F0D8B085EF35F087EF35F010
:106B0A0066EF36F094EF35F073C088F074C089F000
:106B1A0075C08AF076C08BF000016F4B702B88C06D
:106B2A000FF089C010F08AC011F08BC012F0000E6D
:106B3A00136E000E146E200E156E410E166E2AECA0
:106B4A0030F00FC073F010C074F011C075F012C0AD
:106B5A0076F000017351825D016E74518359026EA1
:106B6A0075518459036E76518559046EE4EC25F00B
:106B7A0004BECBEF35F004500310021009E1020EF7
:106B8A00015CD8A0CBEF35F0CDEF35F089EF35F0C9
:106B9A0073C028F074C029F075C02AF076C02BF0B3
:106BAA0082C02CF083C02DF084C02EF085C02FF057
:106BBA00C7EC28F0D8A0E4EF35F0E6EF35F089EF1E
:106BCA0035F000018851825D016E89518359026E48
:106BDA008A518459036E8B518559046EE4EC25F071
:106BEA0004BE05EF36F004500310021007E1020E4E
:106BFA00015CD8B003EF36F005EF36F04DEF36F012
:106C0A0088C082F089C083F08AC084F08BC085F086
:106C1A0066EF36F088C028F089C029F08AC02AF0C9
:106C2A008BC02BF0000E2C6E000E2D6E200E2E6ED9
:106C3A00410E2F6E5DEC2EF028C088F029C089F035
:106C4A002AC08AF02BC08BF000016F07D8A070070A
:106C5A008851825D016E89518359026E8A51845925
:106C6A00036E8B518559046EE4EC25F004BE4BEF9C
:106C7A0036F004500310021007E1020E015CD8B08E
:106C8A0049EF36F04BEF36F04DEF36F005EF36F0C0
:106C9A0082C028F083C029F084C02AF085C02BF076
:106CAA0088C02CF089C02DF08AC02EF08BC02FF03E
:106CBA00C7EC28F0D8A064EF36F066EF36F00FEF95
:106CCA0036F05AC069F069C06AF00001C1BF70EFBE
:106CDA0036F072EF36F078EF36F0C0C062F0C1C01D
:106CEA0063F07CEF36F0000E636F060E626F62C0CF
:106CFA006DF063C06EF06D4B6E2B660E6A19D8A4E8
:106D0A0089EF36F08BEF36F0ABEF36F070BF92EFCB
:106D1A0036F090EF36F09EEF36F0000E886F000ED8
:106D2A00896F800E8A6F3F0E8B6F000E706F000E98
:106D3A006F6F670E6919D8B4A5EF36F0A7EF36F072
:106D4A00ABEF36F06F516D2770516E23000E786FDE
:106D5A00000E776F82C079F083C07AF084C07BF02E
:106D6A0085C07CF088C073F089C074F08AC075F061
:106D7A008BC076F03CEF37F079C028F07AC029F062
:106D8A007BC02AF07CC02BF088C02CF089C02DF083
:106D9A008AC02EF08BC02FF05DEC2EF028C041F097
:106DAA0029C042F02AC043F02BC044F03BEC2CF03F
:106DBA0041C07DF042C07EF043C07FF044C080F005
:106DCA007DC001F07EC002F07FC003F080C004F0F5
:106DDA0049EC29F001C06BF002C06CF079C028F0D0
:106DEA007AC029F07BC02AF07CC02BF07DC013F05A
:106DFA007EC014F07FC015F080C016F088C00FF076
:106E0A0089C010F08AC011F08BC012F02AEC30F061
:106E1A000FC02CF010C02DF011C02EF012C02FF0B0
:106E2A0004EC25F028C079F029C07AF02AC07BF05A
:106E3A002BC07CF088C028F089C029F08AC02AF0CB
:106E4A008BC02BF0000E2C6E000E2D6E200E2E6EB7
:106E5A00410E2F6E5DEC2EF028C088F029C089F013
:106E6A002AC08AF02BC08BF00001774B782B6D512A
:106E7A00775D7851800A5B6E6E51800A5B58D8A0A4
:106E8A0049EF37F04BEF37F0C1EF36F088C00FF01B
:106E9A0089C010F08AC011F08BC012F0000E136E78
:106EAA00000E146EA00E156E400E166E2AEC30F00F
:106EBA000FC07DF010C07EF011C07FF012C080F0CC
:106ECA0079C028F07AC029F07BC02AF07CC02BF068
:106EDA007DC02CF07EC02DF07FC02EF080C02FF038
:106EEA00C7EC28F0D8B07CEF37F07EEF37F089EFA7
:106EFA0037F0000E00017D6F000E7E6F000E7F6F6F
:106F0A00000E806FB2EF37F079C001F07AC002F05C
:106F1A007BC003F07CC004F07DC005F07EC006F0A3
:106F2A007FC007F080C008F047EC27F0D8A0A0EF98
:106F3A0037F0A2EF37F0B2EF37F000016BB1A8EFEC
:106F4A0037F0AAEF37F0B2EF37F0000E7D6F000E80
:106F5A007E6F000E7F6F000E806F82C001F083C0CB
:106F6A0002F084C003F085C004F07DC005F07EC045
:106F7A0006F07FC007F080C008F03FEC32F001C095
:106F8A0079F002C07AF003C07BF004C07CF079C0CB
:106F9A0028F07AC029F07BC02AF07CC02BF0000EC2
:106FAA00136E000E146E200E156E410E166E73C00F
:106FBA000FF074C010F075C011F076C012F02AEC10
:106FCA0030F00FC02CF010C02DF011C02EF012C0FE
:106FDA002FF0C7EC28F0D8A0F5EF37F0F7EF37F02D
:106FEA0020EF38F000016F4B702B73C00FF074C0A4
:106FFA0010F075C011F076C012F0000E136E000E7C
:10700A00146E200E156E410E166E2AEC30F00FC06B
:10701A0073F010C074F011C075F012C076F0660EED
:10702A0000016A19D8A41CEF38F01EEF38F020EFDF
:10703A0038F06D4B6E2B73C088F074C089F075C040
:10704A008AF076C08BF06FC060F070C061F0000EFD
:10705A000001686F000E656F000E646F000E786F96
:10706A00000E776F1EEF39F079C028F07AC029F048
:10707A007BC02AF07CC02BF088C02CF089C02DF090
:10708A008AC02EF08BC02FF05DEC2EF028C041F0A4
:10709A0029C042F02AC043F02BC044F03BEC2CF04C
:1070AA0041C07DF042C07EF043C07FF044C080F012
:1070BA007DC001F07EC002F07FC003F080C004F002
:1070CA0049EC29F002BE75EF38F0025007E10A0ECA
:1070DA00015CD8B073EF38F075EF38F085EF38F00F
:1070EA007DC001F07EC002F07FC003F080C004F0D2
:1070FA0049EC29F001C06BF002C06CF08AEF38F05D
:10710A00000E00016C6F090E6B6F00016851D8A464
:10711A0091EF38F093EF38F0BBEF38F061BF9AEF98
:10712A0038F098EF38F0BBEF38F0000E8625D96EAC
:10713A00010E8721DA6E2E0EDF6E864B872B7107C2
:10714A00D8A07207010E686FBBEF38F0000E8625D3
:10715A00D96E010E8721DA6E300EDF6E864B872BD1
:10716A007107D8A072076407D8A065076451651132
:10717A00D8A4C2EF38F0C4EF38F0ABEF38F0000E05
:10718A008625D96E010E8721DA6E6B51300FDF6EBC
:10719A00864B872B7107D8A0720779C028F07AC06E
:1071AA0029F07BC02AF07CC02BF07DC013F07EC092
:1071BA0014F07FC015F080C016F088C00FF089C0A7
:1071CA0010F08AC011F08BC012F02AEC30F00FC018
:1071DA002CF010C02DF011C02EF012C02FF004ECCC
:1071EA0025F028C079F029C07AF02AC07BF02BC09C
:1071FA007CF088C028F089C029F08AC02AF08BC0A8
:10720A002BF0000E2C6E000E2D6E200E2E6E410EEF
:10721A002F6E5DEC2EF028C088F029C089F02AC0B4
:10722A008AF02BC08BF000016007D8A06107774B6A
:10723A00782B6D51775D7851800A5B6E6E51800AAA
:10724A005B58D8B02BEF39F02DEF39F03BEF39F01E
:10725A0087BF39EF39F0875109E14B0E865DD8A017
:10726A0039EF39F03BEF39F039EF38F0000E786F2B
:10727A004F0E776F000E7725D96E010E7821DA6EE0
:10728A00DF6A000E5B6E010E5C6E86515B5E875193
:10729A005C5A77515B24016E78515C20026E000EB5
:1072AA00036E010E046E86C005F087C006F093ECEB
:1072BA0025F000018651775D866F87517859876F6F
:1072CA008151D8A46BEF39F06EEF39F0010E6FEFF0
:1072DA0039F0000E776F786B8151D8B477EF39F0B7
:1072EA0079EF39F084EF39F08607D8A08707000EC6
:1072FA008625D96E010E8721DA6E81C0DFFF7751AC
:10730A00715F7851725B55C00FF0000E8625106EC2
:10731A00010E8721116E71C012F072C013F00FECCA
:10732A0026F012000000000000000000000000002B
:10733A000000000000000000000000000000000043
:10734A000000000000000000000000000000000033
:10735A000000000000000000000000000000000023
:10736A000000000000000000000000000000000013
:10737A000000000000000000000000000000000003
:10738A0000000000000000000000000000000000F3
:10739A0000000000000000000000000000000000E3
:1073AA0000000000000000000000000000000000D3
:1073BA0000000000000000000000000000000000C3
:1073CA0000000000000000000000000000000000B3
:1073DA0000000000000000000000000000000000A3
:1073EA000000000000000000000000000000000093
:1073FA000000000000000000000000000000000083
:10740A000000000000000000000000000000000072
:10741A000000000000000000000000000000000062
:10742A000000000000000000000000000000065FED
:10743A005F060000000007070007070000147F7FAF
:10744A00147F7F1400242E6B6B3A120000466630BC
:10745A00180C666200307A4F5D377A4800040703D9
:10746A000000000000001C3E634100000000416370
:10747A003E1C000000082A3E1C1C3E2A0808083E42
:10748A003E080800000080E06000000000080808CC
:10749A000808080000000060600000000060301862
:1074AA000C060301003E7F71594D7F3E0040427F2A
:1074BA007F40400000627359496F660000226349A9
:1074CA00497F360000181C16537F7F5000276745F6
:1074DA00457D3900003C7E4B497930000003037139
:1074EA00790F070000367F49497F360000064F4969
:1074FA00693F1E000000006666000000000080E68A
:10750A006600000000081C366341000000242424A1
:10751A002424240000004163361C080000020351A1
:10752A00590F0600003E7F415D5D1F1E007C7E13E1
:10753A00137E7C0000417F7F49497F36001C3E63F1
:10754A004141632200417F7F41633E1C00417F7FAE
:10755A00495D416300417F7F491D0103001C3E6371
:10756A0041517372007F7F08087F7F000000417FCE
:10757A007F41000000307040417F3F0100417F7F22
:10758A00081C776300417F7F41406070007F7F0E57
:10759A001C0E7F7F007F7F060C187F7F001C3E63D6
:1075AA0041633E1C00417F7F49090F06001E3F21AF
:1075BA00717F5E0000417F7F09197F6600266F4D4B
:1075CA00597332000003417F7F410300007F7F40EF
:1075DA00407F7F00001F3F60603F1F00007F7F30B9
:1075EA0018307F7F0043673C183C674300074F7899
:1075FA00784F070000476371594D677300007F7F1A
:10760A0041410000000103060C18306000004141AE
:10761A007F7F000000080C0603060C0800808080AB
:10762A0080808080800000030704000000207454DA
:10763A00543C784000417F3F4848783000387C44C9
:10764A00446C280000307848493F7F4000387C5419
:10765A00545C180000487E7F490302000098BCA4CD
:10766A00A4F87C0400417F7F08047C780000447DF4
:10767A007D4000000060E08080FD7D0000417F7F4A
:10768A0010386C440000417F7F400000007C7C1869
:10769A00381C7C78007C7C04047C780000387C44AC
:1076AA00447C38000084FCF8A4243C1800183C24CC
:1076BA00A4F8FC8400447C784C041C1800485C54F0
:1076CA00547424000000043E7F442400003C7C40A3
:1076DA00403C7C40001C3C60603C1C00003C7C70D0
:1076EA0038707C3C00446C3810386C44009CBCA058
:1076FA00A0FC7C00004C64745C4C64000008083EEA
:10770A00774141000000000077770000004141778F
:10771A003E08080000020301030203010070784CCE
:10772A00464C7870000E9F91B1FB4A00003A7A40AD
:10773A00407A7A4000387C54555D1900000223755E
:10774A0055557D7B42217554547D794000217555EC
:10775A00547C784000207457577C784000183CA429
:10776A00A4E4400000023B7D55555D1B02397D545F
:10777A00545D190000397D55545C18000001457CA0
:10778A007C410100000203457D7D43020001457DE5
:10779A007C40000000797D1612167D790070782BE6
:1077AA002B78700000447C7C5555450000207454A9
:1077BA00547C7C54547C7E0B097F7F4900327B4980
:1077CA00497B320000327A48487A320000327A4ADB
:1077DA0048783000003A7B41417B7A40003A7A424D
:1077EA0040787840009ABAA0A0FA7A000001193CC1
:1077FA0066663C19013D7D40407D3D0000183C24F1
:10780A00E7E7242400687E7F49436620002B2FFC8B
:10781A00FC2F2B0000FFFF09092FF6F8A040C088B3
:10782A00FE7F090302207454557D79400000447D8F
:10783A007D410000003078484A7A320000387840AA
:10784A00427A7A40007A7A0A0A7A7000007D7D19B3
:10785A00317D7D000000262F292F2F280000262F9A
:10786A00292F26000030784D45602000003838085E
:10787A00080808000008080808383800004F6F3068
:10788A0018CCEEBB914F6F30186C76FBF9000000F4
:10789A007B7B000000081C3622081C362222361C7C
:1078AA000822361C08AA005500AA005500AA55AAA3
:1078BA0055AA55AA55DDFFAA77DDAAFF7700000071
:1078CA00FFFF000000101010FFFF00000014141446
:1078DA00FFFF0000001010FFFF00FFFF001010F074
:1078EA00F010F0F000141414FCFC0000001414F75B
:1078FA00F700FFFF000000FFFF00FFFF001414F471
:10790A00F404FCFC0014141717101F1F0010101F9A
:10791A001F101F1F001414141F1F00000010101046
:10792A00F0F00000000000001F1F101010101010CF
:10793A001F1F101010101010F0F01010100000008F
:10794A00FFFF10101010101010101010101010104F
:10795A00FFFF101010000000FFFF1414140000FFB6
:10796A00FF00FFFF1000001F1F101717140000FC74
:10797A00FC04F4F41414141717101717141414F43D
:10798A00F404F4F4140000FFFF00F7F714141414BD
:10799A0014141414141414F7F700F7F71414141425
:1079AA00171714141410101F1F101F1F101414146B
:1079BA00F4F41414141010F0F010F0F01000001F7A
:1079CA001F101F1F100000001F1F141414000000B6
:1079DA00FCFC1414140000F0F010F0F0101010FF6A
:1079EA00FF10FFFF10141414FFFF141414101010CA
:1079FA001F1F000000000000F0F0101010FFFFFF32
:107A0A00FFFFFFFFFFF0F0F0F0F0F0F0F0FFFFFFF4
:107A1A00FF0000000000000000FFFFFFFF0F0F0F34
:107A2A000F0F0F0F0F387C446C386C4400FCFE2A91
:107A3A002A3E1400007E7E020206060000027E7EB6
:107A4A00027E7E020063775D4963630000387C44EE
:107A5A007C3C04040080FE7E20203E1E00040602B8
:107A6A007E7C06020099BDE7E7BD9900001C3E6BCB
:107A7A00496B3E1C004C7E7301737E4C0030784A81
:107A8A004F7D390000183C243C3C243C1898FC6487
:107A9A003C3E273D180000000000000000000000E6
:107AAA0000000000000000000000000000000000CC
:107ABA0000000000000000000000000000000000BC
:107ACA0000000000000000000000000000000000AC
:107ADA00000000000000000000000000000000009C
:107AEA00000000000000000000000000000000008C
:107AFA00000000000000000000000000000000007C
:107B0A00000000000000000000000000000000006B
:107B1A00000000000000000000000000000000005B
:107B2A0000000000000000000000000000808080CB
:107B3A0080000000000000000000000000000000BB
:107B4A0000800000800000800000000000000000AB
:107B5A00000000000000000000000000000000001B
:107B6A00000000000000000000000000000000000B
:107B7A0000000000000000000000000000000000FB
:107B8A0000000000000000000000000000000000EB
:107B9A0000000000000000000000000000000000DB
:107BAA0000000000000000000000003E41808080CC
:107BBA0080413E0000D894A46C00007884844C0074
:107BCA0088FC8081FF8081FF80007884848478002B
:107BDA0000D894A46C00007884844C0000788484D3
:107BEA0084780008FC4884847800007894945800CB
:107BFA0000000000D894A46C00041C6480740C0477
:107C0A0000D894A46C0004FF84400078949458002F
:107C1A0088FC8804FC8804F880000000000000004A
:107C2A00000000000000000000000000000000004A
:107C3A00000000000000000000000000000000003A
:107C4A00000000000000000000000000000000002A
:107C5A00000000000000000000000000000000001A
:107C6A0000000004070400000000000000000000FB
:107C7A0000000000000000000004040601000000EB
:107C8A0000000000000000000000000000000000EA
:107C9A0000000000000000000000000000000000DA
:107CAA0000000000000000000000000000000000CA
:107CBA0000000000000000000000000000000000BA
:107CCA0000000000000000000000000000000000AA
:107CDA00000000000080F0F8181C0E0E1C1878F046
:107CEA00C08000000000000000000000000000004A
:107CFA0000000080F0F8181C0C0E0E1C18F8F0801A
:107D0A000000000000000000000000000000000069
:107D1A000000000000000000000000000000000059
:107D2A000000000000000000000000000000000049
:107D3A000000000000000000000000000000000039
:107D4A000000000000000000000000000000000029
:107D5A0000000000F8FF0F00000000000000000013
:107D6A000FFFF80000000000000000000000000003
:107D7A000000F8FF0F0000000000000000000FFFE5
:107D8A00F8000000000000000000000000000000F1
:107D9A0000000000000000000000000000000000D9
:107DAA0000000000000000000000000000000000C9
:107DBA0000000000000000000000000000080008A9
:107DCA000008001CFCF880080008000800080008E9
:107DDA000008E0FF3F090008000800080008000842
:107DEA0000093FFFE0080008000800080008000832
:107DFA00E0FF3F0900080008000800080008000921
:107E0A000F0F000800080008000000000000000032
:107E1A000000000000000000000000000000000058
:107E2A000000000000000000000000000000000048
:107E3A000000000000000000000000000000000038
:107E4A000000000000073FFCE00000000000008086
:107E5A00C0FC7F07000000000000000000000000D6
:107E6A00000000073FFCE000000000000000C0FC2A
:107E7A007F07000000000000000000000000000072
:107E8A0000000000000000000000000000000000E8
:107E9A0000000000000000000000000000000000D8
:107EAA0000000000000000000000000000000000C8
:107EBA0000000000000000000000000000000000B8
:107ECA000000000000000001070F1C18181C0F0713
:107EDA000100000000000000000000000000000097
:107EEA00000000000001070F1C18181C0C0F0701E6
:107EFA000000000000000000000000000000000078
:107F0A000000000000000000000000000000000067
:107F1A000000000000000000000000000000000057
:107F2A000000000000000000005C000C000C7C282F
:107F3A007C7C447C241048285408000C00384400F7
:107F4A00443800201008103810804000101010002B
:107F5A004000201008384438007C006454484454D7
:107F6A00281C107C4C542438542004740C2854289F
:107F7A00085438005000805000102844282828440B
:107F8A002810045408384C5C7814787C54283844F7
:107F9A00447C44387C54447C14043844347C107C3B
:107FAA00007C0020403C7C106C7C40407C087C7C3F
:107FBA00047C7C447C7C14083844787C14684854DB
:107FCA0024047C047C407C3C403C7C207C6C106C0F
:107FDA001C601C64544C7C4400081020447C00083B
:107FEA000408808080040800252E326600696E66C7
:067FFA00006E616E000044
:020000040020DA
:08000000FFFFFFFFFFFFFFFF00
:020000040030CA
:0E000000000C191EFF8301FF0FC00FE00F4020
:00000001FF
