:020000040000FA
:0400000006EF00F017
:020004000000FA
:0800080039EF00F01CEC00F0E0
:1000100023EC00F029EC00F02DEC00F010EF00F0E4
:1000200041EC00F058EC00F071EC00F0C5EC00F091
:10003000E2EC00F010EF00F0F00E926E9368816A2F
:10004000956A836A12000A0EC16E100EC26EC280DB
:100050001200F28EF28C9D8C1200D88A3C0EBD6E7E
:10006000D89A050ECA6EE00ECB6ECA84BD80BD82E2
:1000700012009E9CC450196E81EC01F046EC00F019
:100080001000C282C2B242EF00F01200100E195CE2
:10009000D8A44EEF00F0100E196E1200000E195C7D
:1000A000D8B457EF00F0000E196E57EF00F01200B1
:1000B000100E236E000E226E216E206E61EF00F096
:1000C00012002350195CD8A06FEF00F0202A2250B4
:1000D000235E100E236E2150235E61EF00F0236A31
:1000E00012002050246E86EC00F0256E2150246E04
:1000F00086EC00F0266E2250246E86EC00F0276E0F
:100100002350246E86EC00F0286E12002452D8B4DE
:10011000B9EF00F0242E8FEF00F0BAEF00F0242E9C
:1001200094EF00F0BBEF00F0242E99EF00F0BCEF4D
:1001300000F0242E9EEF00F0BDEF00F0242EA3EF80
:1001400000F0BEEF00F0242EA8EF00F0BFEF00F0AB
:10015000242EADEF00F0C0EF00F0242EB2EF00F03F
:10016000C1EF00F0242EB7EF00F0C2EF00F0C3EFB4
:1001700000F03F0C060C5B0C4F0C660C6D0C7D0CFC
:10018000070C7F0C6F0C790C120025C083FF89804F
:10019000DEEC00F0899026C083FF8982DEEC00F05F
:1001A000899227C083FF8984DEEC00F0899428C0FF
:1001B00083FF8986DEEC00F089961200FF2FDEEFC8
:1001C00000F01200FDEC00F081B006EC01F081B20D
:1001D00015EC01F081B424EC01F081B633EC01F0B0
:1001E00081B842EC01F081BA51EC01F081BC60ECC5
:1001F00001F081BE6FEC01F0120081908192819438
:1002000081968198819A819C819E1200000E296EB0
:100210007EEC01F030A081803080819281948196C3
:100220008198819A819C819E1200000E296E7EEC3D
:1002300001F031A0818231808190819481968198F2
:10024000819A819C819E1200000E296E7EEC01F045
:1002500032A0818432808190819281968198819AA6
:10026000819C819E1200000E296E7EEC01F033A06D
:10027000818633808190819281948198819A819C3A
:10028000819E1200000E296E7EEC01F034A0818860
:1002900034808190819281948196819A819C819E03
:1002A0001200000E296E7EEC01F035A0818A3580A7
:1002B00081908192819481968198819C819E120087
:1002C000000E296E7EEC01F036A0818C3680819084
:1002D0008192819481968198819A819E1200000E6C
:1002E000296E7EEC01F037A0818E3780819081925B
:1002F000819481968198819A819C12002950BE6ECA
:100300001200E00ECB6ED88ACB50CA6ED89A12007B
:020000040030CA
:0100000000FF
:010001000CF2
:010003001EDE
:010005008179
:010006008574
:00000001FF
